:020000040800F2
:10000000F8240020F91D0008F50F0008F70F00087C
:100010000110000805100008091000080000000089
:100020000000000000000000000000000D100008AB
:100030000F1000080000000047530008911B000843
:10004000131E0008131E0008131E0008131E0008CC
:10005000131E0008131E0008131E0008131E0008BC
:10006000131E0008131E0008131E0008131E0008AC
:10007000131E0008131E0008131E0008131E00089C
:10008000131E0008131E0008131E0008131E00088C
:10009000131E0008131E0008131E0008131E00087C
:1000A000131E0008131E0008131E0008131E00086C
:1000B000131E0008131E0008131E0008131E00085C
:1000C000131E0008131E0008131E0008131E00084C
:1000D000131E0008651D0008131E0008131E0008EB
:1000E000131E0008131E0008131E0008131E00082C
:1000F000131E0008131E0008131E0008131E00081C
:10010000131E0008131E0008131E0008131E00080B
:10011000131E0008131E0008131E0008131E0008FB
:10012000131E0008131E0008131E0008131E0008EB
:1001300000F002F800F04AF80AA090E8000C8244AF
:100140008344AAF10107DA4501D100F03FF8AFF28C
:10015000090EBAE80F0013F0010F18BFFB1A43F0A5
:1001600001031847A86F0000C86F0000103A24BFB1
:1001700078C878C1FAD8520724BF30C830C144BF0C
:1001800004680C607047000000230024002500264E
:10019000103A28BF78C1FBD8520728BF30C148BFEA
:1001A0000B607047662906F0C586642905F0348126
:1001B000002070471FB505F083FC040000200021DB
:1001C00006F0D8F9E0601FBD10B510BD05F090FD38
:1001D0001146FFF7EFFF00F0AAFD05F0AEFD03B4F6
:1001E000FFF7F2FF03BC01F05DFD00002DE9F041D7
:1001F0000446F748008806F023FC05460022F54B2C
:1002000006F082FA07464FF06632F34B06F068FCC0
:10021000F24A03C20022F24BF04903C906F024FC63
:1002200008D2EE480CC80020ED4906F099FDED4AD1
:1002300003C20EE00022EA4BE84903C906F04EFD76
:1002400007D80022E64BE54903C906F089FDE54AD7
:1002500003C24FF06632E44BE04903C906F004FCE8
:100260004DD2E2480088B0F5FA6F04DD4FF4FA6031
:10027000DE49088039E00022DD4BDA4903C906F087
:100280002DFD05D2D94800880A30D84908802CE0D5
:10029000D84AD94BD34903C906F020FD05D2D3482B
:1002A00000880830D14908801FE04FF03332D34B2B
:1002B000CC4903C906F012FD05D2CC480088001DC8
:1002C000CA49088011E0CB4ACD4BC64903C906F0A4
:1002D00005FD05D2C5480088801CC449088004E09B
:1002E000C2480088401CC149088005F005F8044652
:1002F000BE48008801F053FB204605F001F8BDE838
:10030000F081002405E02046FFF770FF052001F092
:100310009CFCF8E7FFB5034603EB011004683EE0E0
:1003200000E0521E914204DA03EB02100068A04282
:10033000F7D203EB0117D7E90065D7E90207CDE94A
:100340000207CDE9006503EB011003EB021797E804
:100350006010FF6880E86010C76003EB02109DE842
:10036000E010A0E8E01000E0491C914204DA03EB41
:1003700001100068A042F7D903EB0117E1CF8DE827
:10038000E10003EB011003EB021C9CE8E010A0E885
:10039000E01003EB02109DE8E010A0E8E0109142AD
:1003A000BEDB084604B0F0BDF0B507460D46164664
:1003B000B5420FDA324629463846FFF7ABFF04460E
:1003C000621E29463846FFF7EFFF3246611C384669
:1003D000FFF7EAFFF0BD30B505460C46621E00216E
:1003E0002846FFF7E1FF30BDAAB0002705265AE0F6
:1003F00029AA00218348006804F072F805469DF898
:10040000A40000284CD100240DE001A800EB04104A
:1004100005EB0413D3E901C21968DB68C0E901C226
:10042000C3600160641C0A2CEFDB0A2101A8FFF7FE
:10043000D2FF04F061FF0746734800780A2804DA07
:1004400071480078401C704908707048007809288D
:100450000FD16F486D49097800EB011001A901EB3C
:10046000061C9CE80E10A0E80E10002067490870DA
:1004700013E0664801780078401C644A10706448B4
:1004800000EB011001A901EB061CDCE90031DCE9FD
:10049000022CC0E9022CC0E90031384604F030FFDC
:1004A000322001F0D2FBA3E710B5029C016042604C
:1004B0008360C46010BDB6B04FF00009C84685E047
:1004C0002EA800F094FF2EA840693299411ADDE968
:1004D0002E20801A43F60952504301EBC0042EA887
:1004E00081694069091ADDE92F20801A43F6095213
:1004F000504301EBC0072EA8C1694069091A2F9A21
:100500003198801A43F60952504301EBC006374830
:100510000088B0F5966F05DD3E48844202D24FF068
:10052000000A09E0B6F5FA5F01DC002E02DA4FF0AE
:10053000000A01E04FF0010A3748844203D814B1A1
:10054000BAF1000F22D12EA880693299411A2E9A51
:100550003098801A43F60952504301EBC0052348F6
:100560000088B0F5966F02DD2A4885420DD32B48EE
:1005700085420AD92848854207D204F0BDFE81464B
:1005800027480560484604F0BBFE1FE05B463A463C
:10059000214602A80096FFF787FF404608F10108B0
:1005A00006A901EB001002A991E80E10A0E80E10B8
:1005B000B8F10A0F06D14FF0000806A911480068EB
:1005C00004F056F80A2001F040FB00BF78E7000075
:1005D000440000200000B04066660A401800002079
:1005E0000000084020000020666606400800002049
:1005F0000000F03F9A9999999999E93F3333E33F85
:100600009999D93F00000020050000200400002037
:10061000B0120020E022020080969800E0930400CF
:100620000C0000202DE9F04F87B006460C4691469D
:10063000D4E90021104606F0BFF90546280A8DF8D6
:100640001000E8B28DF81100284606F0F9F982464C
:10065000D4E900733A4606F077FB0022FE4BCDE961
:10066000000106F03DFACDE9020106F0A5F9C0B29D
:100670008DF81200CDF81490DDE90401C6E90001FF
:1006800007B0BDE8F08F2DE9F04F89B004460D4664
:10069000F2480890002213462046294606F0E4F965
:1006A00001D285F000450022ED4B2046294605F099
:1006B00077FF0022EA4BCDE904012046294606F0E7
:1006C0004FFBCDE90201DDE9042306F01DF80746E2
:1006D00088463A4643463846414606F001FACDE997
:1006E0000601089E700000F1010B584606F091F9D2
:1006F00002460B46CDE904010020D94906F004F872
:1007000081468A46089E1DE0ABF1020B4A465346DD
:10071000DDE9060106F0E4F9CDE90401584606F0EA
:1007200078F902460B46CDE900010020CC4905F0DE
:10073000EBFFCDE90201DDE9042305F031FF81463D
:100740008A46761E002EDFDC3A46434600204FF0F4
:10075000804106F0C5F94A465346CDE9040106F04A
:10076000BFF909B0BDE8F08F10B50121BD4801F017
:10077000C4FC012802D1BC49087002E00020BA493B
:10078000087010BD92B00020109000210E910F91C2
:1007900000240B90002500268246814683460120D6
:1007A000B249087086E2FFF7DFFFAF480078012802
:1007B0000AD104F0A1FD1090AD480188ADA004F06D
:1007C000F7FD109804F09CFD042E30D1BAF1000F13
:1007D00029D1B9F1000F26D1A4480078012812D1FF
:1007E0000020A2490870082004F08EFB9E48007883
:1007F000012808D104F080FD1090A0A004F0D8FDDD
:10080000109804F07DFD9A48058804F075FD10905D
:100810004FF49660964908800846008801F0BFF8BA
:10082000109804F06DFD0026B246B14621E0012E7D
:100830001FD1F5B196480078D0B9B9F1000F17D1A2
:100840008B480580008801F0AAF8012087490870CC
:10085000082004F0CAFA84480078012808D104F07E
:100860004BFD10908BA004F0A3FD109804F048FD00
:10087000002504F041FD10908548007840B384487D
:1008800001788748FFF7A7FD8149087800EBD07110
:100890004910834A02EB0111D1F800B07C49087875
:1008A00000EBD071491002EB0111CC687D48834503
:1008B00006D240F69800844202D900200B9001E055
:1008C00001200B900020724908707749087001E000
:1008D00000200B90109804F013FD0B9800287CD09A
:1008E0000AF1010000F0FF0A584606F0A9F80022BC
:1008F0006E4BCDE9080106F0F3F8074600226C4B79
:1009000005F002FFCDE90E01B4F58C6F29D9B4F5DD
:10091000FA6F26D2204606F093F8664A664BCDE978
:10092000000106F0DDF807460022644B05F038FEB2
:10093000CDE90201FFF7A7FE614A624BCDE9040150
:1009400006F0CEF8CDE90601DDE90E2306F0FCF94C
:100950005D4A5E4BCDE9080105F022FECDE90E01AE
:1009600021E0B4F5FA6F16D3204606F069F8074681
:10097000574A584B06F0B4F8CDE90601DDE90E23DD
:1009800006F0E2F9544A554BCDE9080106F0E8F9C2
:10099000CDE90E0107E0524A524BDDE90E0106F0A7
:1009A000DFF9CDE90E0130480078012819D104F0B3
:1009B000A3FC10904CA004F0FBFC4CA0DDE90E233E
:1009C00004F0F6FC21464BA004F0F2FC2848018814
:1009D00028A004F0EDFC109800E0D1E004F090FCB9
:1009E00032E004F089FC109022460EA909A8FFF716
:1009F00019FEDDE90901CDE90C0100BF40213F48A6
:100A000001F0B2FF0028F9D09DF830103B4801F00A
:100A10003DFF00BF4021394801F0A6FF0028F9D072
:100A20009DF83110354801F031FF00BF40213348B7
:100A300001F09AFF0028F9D09DF832102F4801F0FC
:100A400025FF109804F05CFC00222D4BDDE90E011F
:100A500006F044F973D255E000007040A086010012
:100A60000000F03F000801401000002006000020B8
:100A700008000020713A25640A0000004147432025
:100A80007461736B2073757370656E640A00000087
:100A90000500002041474320726573756D650A00AB
:100AA000B0120020F0490200040000200000F83FCE
:100AB0000088C340569FABADD8DF25C00053C64069
:100AC000696FF085C954EB3FF4FDD478E9260840FE
:100AD0002D431CEBE2363A3F5DDC4603784B104079
:100AE000AE47E17A14AE05404D563A00252E3266E7
:100AF0002000000020653A256420000000380140F5
:100B000000003540FB480078002816D10120F94943
:100B100008704FF49660F8490880082004F065F9E1
:100B2000F64800780128F0D104F0E6FB1090F4A01C
:100B300004F03EFC109804F0E3FB9FE0FFE7ED4873
:100B400000780128F9D10020EA490870082004F053
:100B5000DBF94FF49660E84908800846008800F009
:100B60001EFFE64800780128E7D104F0C5FB10908D
:100B7000AFF2F80004F01CFC109804F0C1FB7DE01B
:100B8000E4480068A8B309F1010000F0FF09D94862
:100B90000078012812D10020D6490870082004F0FE
:100BA000B3F9D6480078012808D104F0A5FB1090CD
:100BB000D9A004F0FDFB109804F0A2FB04F09CFB0C
:100BC00010900020D349086035B105F16400CA498E
:100BD00008800846058804E0C74800886430C64994
:100BE0000880C548008800F0DAFE109804F088FB01
:100BF0001AE0FFE7BF480078B0B90120BD4908708E
:100C00004FF49660BC490880082004F0EEF8BB4819
:100C10000078012808D104F06FFB1090C3A004F005
:100C2000C7FB109804F06CFBB448007830BB04F0AC
:100C300063FB109000BF4021C14801F095FE0028E1
:100C4000F9D0FF21BE4801F021FE00BF4021BC4881
:100C500001F08AFE0028F9D0FF21B94801F016FE04
:100C600000BF4021B64801F07FFE0028F9D0FF21E7
:100C7000B34801F00BFE109804F042FB9D48007849
:100C800090B10120AF49086000270020AE49C1F8AB
:100C9000900100BF05E000F0DCFC012000F0D5FF72
:100CA0007F1C322FF7DB00BF4FF4FA7000F0CDFF4E
:100CB000701CC6B277E570B5044600250120A14935
:100CC000086000F0C2FF00209F49C1F89001012098
:100CD0008849087000BF01029C4803F033FB9C491F
:100CE000086004F009FB054605239A4A0021AFF28B
:100CF0006B5003F089FE0623974A0021AFF64900A6
:100D000003F082FE0723954A0021AFF6231003F07B
:100D10007BFE0823924A0021AFF6192003F074FEEF
:100D20000A2004F0F1F8284604F0EAFA70BD10B584
:100D30004FF4A06001F080F800F036FF4FF4165039
:100D400000F0BFFFFFF710FD00F0B6FC00F0D6FE8C
:100D500000F0B8FD00F036FE00F049FE00F00AFC9D
:100D600000F0C0FA00F0E3FA764B0C331A1F7D490D
:100D70003C2000F04DFD734B0C331A1F7949502075
:100D800000F053FD6F4B083B1A1F191D282000F07F
:100D90003FFD6C4B083B1A1F191D502000F045FD0C
:100DA000012000F0F0FD5448008800F0F8FD02F04A
:100DB00078FB0A236C4A0021AFF2051003F024FEF1
:100DC00002F094FC002010BD2DE9F04704464FF0DE
:100DD0000009A07805F034FE07460022634B05F0B9
:100DE00093FC05460E466078217800EB01201FFA3F
:100DF00080F9484605F024FE07462A46334605F0AA
:100E0000CFFBBDE8F087014600200A7810440002BD
:100E10004A78104400028A78104470472DE9F04166
:100E20000446E0B205F00CFE074600224F4B05F0E9
:100E30006BFC05460E46200A05F002FE07462A46D0
:100E4000334605F0ADFB05460E4628463146BDE863
:100E5000F0817FB50446002221466846FFF7E2FB99
:100E6000DDE90001CDE9020102A8FFF7CCFF05464C
:100E7000284604B070BD70B50446A078642100FB1C
:100E800001F56078237800EB0321E81705EB10608B
:100E9000021237A004F08CFA70BD70B504462046EB
:100EA000FFF7BCFF05460E462A463346AFF2C43074
:100EB00004F07EFA70BD7CB5034653F8314074E00F
:100EC00000E0521E914203DA53F83200A042F8D2F9
:100ED00003EBC10521CDCDE9000503EBC10003EB18
:100EE000C20660CE60C003EBC200DDE9005660C000
:100EF00045E000000600002008000020100000204F
:100F0000414743207461736B20726573756D653161
:100F10000A0000000C000020414743207461736BFD
:100F20002073757370656E642D2D0A004147432050
:100F30007461736B20726573756D65320A00000011
:100F4000003801409001214200002142B00E0020F3
:100F500000000020AC030020AC0B0020AC0D0020F2
:100F6000AC0E002080812142AC01002000007040C6
:100F700025642E253032642000000000491C914277
:100F800003DA53F83100A042F8D903EBC10521CDB3
:100F9000CDE9000503EBC10003EBC20660CE60C0E3
:100FA00003EBC200DDE9005660C0914288DB0846D1
:100FB0007CBDF0B507460D461646B5420FDA3246FF
:100FC00029463846FFF777FF0446621E2946384611
:100FD000FFF7EFFF3246611C3846FFF7EAFFF0BD2E
:100FE00030B505460C46621E00212846FFF7E1FF9A
:100FF00030BD0000704706A004F0DAF900BFFEE73C
:1010000000BFFEE700BFFEE700BFFEE77047704786
:10101000486172644661756C745F48616E646C65AA
:10102000720D0A000CB50020019000906C48006819
:1010300040F480306A49086000BF6948006800F4E5
:10104000003000900198401C0190009818B9019858
:10105000B0F5A06FF1D16248006800F4003010B123
:101060000120009001E0002000900098012843D169
:101070005C48006840F010005A4908600846006863
:1010800020F0030008600846006840F00200086095
:1010900053484068524948600846406848600846DE
:1010A000406840F4806048600846406820F47C1046
:1010B00048600846406840F4E81048600846006808
:1010C00040F08070086000BF4548006800F0007084
:1010D0000028F9D04248406820F0030040494860A9
:1010E0000846406840F00200486000BF3C48406845
:1010F00000F00C000828F9D10CBD10B5FFF792FFE5
:1011000010BD10B53648006840F001003449086051
:10111000084640683449084031494860084600683C
:10112000324908402E4908600846006820F48020B3
:1011300008600846406820F4FE0048604FF41F0035
:101140008860FFF7DAFF4FF000602949086010BDA2
:1011500010B5002100200022214B5B6803F00C0138
:1011600021B1042906D0082928D107E0214B224CBF
:10117000236027E01F4B204C236023E0184B5B6863
:1011800003F47010164B5B6803F48032022303EB08
:10119000904022B9194B4343174C23600DE0104B8C
:1011A0005B6803F4003323B1144B4343124C2360B8
:1011B00003E0104B4343104C236003E00D4B0E4CF7
:1011C000236000BF00BF064B5B68C3F303130C4CE6
:1011D000E15C094B1B68CB40074C236010BD00004D
:1011E00000100240002002400000FFF8FFFFF6FE62
:1011F00008ED00E000127A002800002000093D0000
:101200002C00002008B501210C2001F09FF94FF4BB
:10121000C840ADF8000010208DF8030003208DF8C1
:10122000020069462C4800F0D5FE4FF4C8412A4818
:1012300000F07FFF0121082001F088F94FF4004001
:10124000ADF8000028208DF803006946224800F020
:10125000C1FE00202149086008BD70B50546002088
:101260001E490860072414E00A2000F0C3FC45FA78
:1012700004F000F001001949091D08600120184917
:10128000C1F8B4010A2000F0B5FC00201349086041
:10129000641E002CE8DA70BD70B5044625460020B7
:1012A0002870072615E001200C4908600A2000F08C
:1012B000A1FC0020094908602878084978390968A4
:1012C00001F00101B140084328700A2000F092FCAF
:1012D000761E002EE7DA70BD000C0140B481214279
:1012E0000080214208B501210C2001F02FF94FF4B4
:1012F0008850ADF8000010208DF8030003208DF811
:1013000002006946944800F065FE4FF48851924807
:1013100000F00FFF0420ADF8000048208DF8030016
:1013200069468D4800F056FEFFF76CFF08BD10B50A
:1013300001208A49086000208949C1F8A8013020AD
:10134000FFF78BFF01208549086000200860854970
:1013500008708020FFF781FF0020834908700AE0B1
:101360008249814A1278885CFFF777FF7E480078CF
:10137000401C7D4908707C4800781128F0DB012072
:101380007649086000207649C1F8A8014020FFF79F
:1013900064FF00207449087017E07548FFF77CFF70
:1013A000724871490978405C71490978884202D0D5
:1013B00001206C4908706B48007808B100BFFEE757
:1013C00069480078401C684908706748007811280F
:1013D000E3DB6448007848B90120604908600020D8
:1013E0005F49C1F8A8011820FFF737FF10BD70B59D
:1013F0000446002500205C4908701CE000205A4982
:10140000097844F82100002104F11000564A1278AE
:1014100040F8221000205449097844F821000021A6
:1014200004F11000504A127840F822104E4800781B
:10143000401C4D4908704C4800780428DEDB04E06D
:1014400000F007F9012000F000FC4448A0380068D3
:101450000028F5D101204149086000204049C1F829
:10146000A80103F049FF05466820FFF7F6FE0020BB
:101470003D49087068E03E48FFF70EFF3A480078A3
:1014800054F820003A49097800EB014036490978C0
:1014900044F821003648FFF7FFFE3348007854F83F
:1014A00020003349097800EB01202F49097844F8DE
:1014B00021002F48FFF7F0FE2B48007854F8200059
:1014C0002B49097808442849097844F8210028481C
:1014D000FFF7E2FE04F110002349097850F82100DB
:1014E0002349097800EB014104F110001E4A1278EB
:1014F00040F822101E48FFF7CFFE04F110001A49F1
:10150000097850F821001A49097800EB012104F10B
:101510001000154A127840F822101548FFF7BCFE5B
:1015200004F110001049097850F821001049097899
:10153000014404F110000C4A127840F822100A48C5
:101540000078401C0849087007480078042892DB9E
:10155000284603F0D5FE70BD000C0140A881214251
:10156000008021423E0000203D000020386F00082E
:101570003C00002008B50121082000F0E7FF6820AA
:10158000ADF8000010208DF8030003208DF8020054
:101590006946404800F01EFD68213E4800F0C9FD44
:1015A0000121052000F0D2FF01213B4800F0E3FDBE
:1015B0004FF40040ADF8000010208DF80300032028
:1015C0008DF802006946354800F004FD4FF40041F3
:1015D000324800F0AEFD0121092000F0B7FF0121E3
:1015E0002D4800F0C8FD1020ADF8000048208DF80F
:1015F00003006946274800F0EDFC002028490860F8
:1016000001202849C1F88C0108BD08B5012111202D
:1016100000F09CFF012001F00CFA002000F003FF15
:10162000002001F06CFA4FF46040ADF80000022099
:101630008DF8020048208DF8030069461A4800F032
:10164000C9FC002001F0F5F9002000F0ECFE08BD17
:10165000704700B5012015490860FFF7F9FF002029
:101660001349C1F8BC0100BD12E0002405E00420CC
:1016700000F0EBFAFFF7EDFF641C142CF7D34FF4E6
:10168000C87000F0E2FA0B480068401C0949086085
:10169000EBE70000000C01400002300000080140B0
:1016A000988121420080214200100140BC0121426A
:1016B000000021424000002008B501210C2000F06C
:1016C00045FFCE20ADF8000010208DF80300032068
:1016D0008DF802006946754800F07CFCCE21734805
:1016E00000F027FD0120ADF8000010208DF8030068
:1016F00003208DF8020069466D4800F06BFC012163
:101700006B4800F014FD0821684800F010FD08BD8A
:101710002DE9F0470746884614461D46DDF820A00F
:101720004FF0000900BF49EA070048EA00290120FC
:10173000206000202060012000F05CFA002028607A
:101740000F2613E00A2000F055FA29FA06F000F0FF
:101750000100CAF800000A2000F04CFA01202860BD
:101760000A2000F047FA00202860761E002EE9DAF1
:101770000A2000F03FFA01202060BDE8F0872DE943
:10178000F04105460E46002700BF47EA050046EA3D
:10179000002701204749086000204749C1F880011F
:1017A000012000F027FA0020444908600F2417E0C8
:1017B0000A2000F01FFA27FA04F000F001003F4968
:1017C000091D08600A2000F015FA01203C49C1F803
:1017D00098010A2000F00EFA002038490860641EC3
:1017E000002CE5DA0A2000F005FA012031490860F2
:1017F000BDE8F08110B5044621460120FFF7BFFF88
:1018000010BD10B5044621460220FFF7B8FF10BDF9
:10181000F8B504460D4616461F4633462A4621466D
:1018200001200097FFF774FFF8BDF8B504460D4698
:1018300016461F4633462A46214602200097FFF7E8
:1018400067FFF8BDF8B504460D4616461F463346F9
:101850002A46214611200097FFF75AFFF8BDF8B538
:1018600004460D4616461F4633462A462146122098
:101870000097FFF74DFFF8BDF8B507460C46154633
:101880001E462B462246002133200096FFF740FFDC
:10189000F8BDF8B507460C4615461E462B462246AF
:1018A000002123200096FFF733FFF8BD0008014018
:1018B000000C014080812142008021429801214298
:1018C0000000214208B50121082000F03FFE40F24F
:1018D0008230ADF8000010208DF8030003208DF851
:1018E00002006946344800F075FB40F2823132480C
:1018F00000F01DFC00203149086001203049C1F88A
:101900009C0100202D49091D08602D49C1F8840162
:1019100008BD70B505460120284908600020284907
:10192000C1F8A40101202549091D086000F062F9F1
:10193000002022490860091D08600F2415E00120DD
:1019400000F058F945FA04F000F001001B491C3979
:10195000086000201A49C1F89C01012000F04AF9F2
:1019600001201649091F0860641E002CE7DA0120D7
:101970001249091F08601249C1F8A4010F49086003
:1019800000F038F970BD10B50446042C05DA44F4B3
:101990005040FFF7BEFF012010BD0020FCE710B54E
:1019A0000446B4F5805F05DA44F48040FFF7B1FFE8
:1019B000012010BD0020FCE7000C0140A081214265
:1019C0000080214208B50121042000F0BFFD102055
:1019D000ADF80000ADF8000003208DF80200694664
:1019E000414800F0F7FA01204049086008BD00B501
:1019F00091B00121084600F09CFD01214FF40170D7
:101A000000F0A4FD2020ADF8400000208DF8430038
:101A100010A9354800F0DEFA354801F0EFFA3548F4
:101A20000090354801900020029001200390002092
:101A3000049005904FF4807006908000079020205D
:101A400008900002099000200A906946284801F099
:101A500077FB0121264801F09EFB00200B908DF8BA
:101A6000300001208DF831004FF460200D900020EF
:101A70000E9001208DF83C000BA91E484C3801F057
:101A8000BCF84FF4404000F0C5FC05230122194684
:101A900018484C3801F049F9012116484C3801F03A
:101AA000E3F8012113484C3801F0D3F811484C38C1
:101AB00001F0F1F800BF0F484C3801F0F1F80028B0
:101AC000F9D10C484C3801F0F5F800BF09484C3802
:101AD00001F0F5F80028F9D1012106484C3801F051
:101AE000F8F811B000BD000000080140900121424B
:101AF000080002404C2401404400002008B50121A8
:101B0000042000F023FD0120ADF8000028208DF80E
:101B100003006946154800F05DFA08BD10B504469B
:101B200014B10120124908701148007898B10121C0
:101B30000E4800F0E2FA01280DD10A2000F085F8E5
:101B400000200B4908700121084800F0D6FA01284E
:101B500009D1042010BD0121044800F0CEFA10B9CB
:101B60000120034908700020F4E70000000801404C
:101B70004600002010B501F0FDFC10BD10B501F0CD
:101B80003EFD10BD10B50446204603F085FA10BD99
:101B900010B53E480078012805D101F098FC01F00D
:101BA000DCFD01F0AFFC10BD10B56FF0040000F0DB
:101BB00092F9374800683749B0FBF1F036490870B0
:101BC000334800683349B0FBF1F441F288304443B4
:101BD0000520324908804FF0E020006940F0020003
:101BE0004FF0E021086108464461006940F00100BF
:101BF000086110BD2DE9F047074600264FF0E020B0
:101C0000D0F814902448007807FB00F800BFFFF7D5
:101C1000B1FF4FF0E020856911E04FF0E0208469CA
:101C2000AC420CD0AC4202D2281B064403E0A9EB24
:101C30000400284406442546464500D300E0ECE76E
:101C400000BFFFF79BFFBDE8F08770B504460F4863
:101C50000078A0B11248007888B910480088844202
:101C600006DB0E48008894FBF0F52846FFF78AFF54
:101C70000A48008894FBF0F100FB114084B24FF455
:101C80007A7104FB01F0FFF7B5FF70BD8E000020F4
:101C90002800002000127A00480000204A0000209E
:101CA00081000020014600BF704700BF4E4A1288E5
:101CB00002F04002002AF9D0C2B24B4B1B1D1A8021
:101CC000704710B586B00446012144F2040000F0CC
:101CD0003DFC4FF40070ADF8140003208DF81600A1
:101CE00018208DF8170005A9404800F073F94FF44B
:101CF0008060ADF8140004208DF8170005A93B485A
:101D000000F068F925208DF8000003208DF801000F
:101D10008DF8020001208DF80300684600F091F86C
:101D200001944FF48050ADF808000020ADF80A008F
:101D30004FF48060ADF80C000020ADF810000C20CE
:101D4000ADF80E0001A9284800F0A7FC012240F2DE
:101D50002551254800F039FD0121234800F029FDD7
:101D600006B010BD10B501F0B2FB40F225511E487F
:101D700000F010FE10B31C4800F08CFDC4B21C48EB
:101D8000008800F40040C8B91948008800F4804079
:101D900060B10A2C03D000201549088020E01448C7
:101DA000008840F400401249088019E00D2C06D14B
:101DB0000F48008840F480400D49088010E00C482E
:101DC0000088C0F30D000B490C5409480088401CE2
:101DD0000749088008460088C72801DD00200880E0
:101DE00001F090FB10BD00000038014000080140E8
:101DF0005000002050130020094880470948004740
:101E0000FEE7FEE7FEE7FEE7FEE7FEE7FEE7FEE7AA
:101E1000FEE7FEE704480549054A064B7047000007
:101E20000311000831010008F81E0020F8240020EA
:101E3000F8200020F820002031490143314A116088
:101E4000704770B5002100230F22C47804B32D4CD5
:101E5000246804F4E064C4F5E064210AC1F10403D9
:101E6000CA40447804FA03F18478144021430901FC
:101E7000254C0678A155047804F01F050124AC40D8
:101E800005786D11AD0005F1E025C5F8004109E0C8
:101E9000047804F01F050124AC401C4D067876112F
:101EA00045F8264070BD1A4A0A400243154B1B1FD5
:101EB0001A60704739B1134A121D12680243114B60
:101EC0001B1D1A6006E00F4A121D126882430D4B5B
:101ED0001B1D1A607047042808D14FF0E0210969E2
:101EE00041F004014FF0E022116107E04FF0E021E2
:101EF000096921F004014FF0E022116170470000F0
:101F00000000FA050CED00E000E400E080E100E0F4
:101F100080FFFF1F10B50446CC48844208D1012140
:101F2000042000F02DFB0021042000F029FB46E0F6
:101F3000C748844208D10121082000F021FB00217C
:101F4000082000F01DFB3AE0C248844208D101217C
:101F5000102000F015FB0021102000F011FB2EE0F6
:101F6000BD48844208D10121202000F009FB002156
:101F7000202000F005FB22E0B848844208D101216E
:101F8000402000F0FDFA0021402000F0F9FA16E0B0
:101F9000B348844208D10121802000F0F1FA0021E9
:101FA000802000F0EDFA0AE0AE48844207D101211A
:101FB000801500F0E5FA0021A01500F0E1FA10BD4F
:101FC00010B50121084600F0DBFA0021012000F0E5
:101FD000D7FA10BD2DE9F041024600250026002069
:101FE00000230024002791F803C00CF00F0591F89E
:101FF00003C00CF0100CBCF1000F03D091F802C02C
:102000004CEA050591F800C0BCF1000F31D014680E
:1020100000202BE04FF0010C0CFA00F3B1F800C0E7
:102020000CEA03069E4220D183004FF00F0C0CFAFD
:1020300003F7BC4305FA03FC4CEA040491F803C01F
:10204000BCF1280F06D14FF0010C0CFA00FCC2F8CD
:1020500014C00AE091F803C0BCF1480F05D14FF05D
:10206000010C0CFA00FCC2F810C0401C0828D1D3A7
:102070001460B1F800C0BCF1FF0F34DD54680020DB
:102080002EE000F1080C4FF0010808FA0CF3B1F84B
:1020900000C00CEA03069E4221D183004FF00F0CD2
:1020A0000CFA03F7BC4305FA03FC4CEA040491F86C
:1020B00003C0BCF1280F05D100F1080C08FA0CF898
:1020C000C2F8148091F803C0BCF1480F07D100F1A9
:1020D000080C4FF0010808FA0CF8C2F81080401CF8
:1020E0000828CED35460BDE8F0814FF6FF7101801F
:1020F000022181700421C17070470246002093685C
:102100000B400BB1012000E00020704701468868B9
:1021100080B2704702460020D3680B400BB101200B
:1021200000E0002070470146C86880B27047016136
:102130007047416170470AB1016100E04161704739
:10214000C16070474FF480320A43826181618261CD
:1021500082698269704702460020434B18684FF637
:102160008073184040EA021008433F4B18607047E4
:102170003E49C8617047F0B50A460023002400219B
:10218000002500F00046B6F1004F02D1364EF1694D
:1021900001E0354E7168C0F3034583B200F4401688
:1021A000B6F5401F08D121F070612F4E766826F0F9
:1021B00070662D4F7E6012E000F48016B6F5801F29
:1021C00006D1032606FA05F4A14341F0706106E04A
:1021D000460D360103FA06F6B14341F0706122B1B3
:1021E000460D360103FA06F6314300F00046B6F11B
:1021F000004F02D11C4EF16101E01B4E7160F0BD39
:1022000030B500228B071C0F0F2303FA04F2164B84
:1022100008338C1053F824309343134C08348D103A
:1022200044F8253023468C1053F824308C07240FB3
:1022300000FA04F423430C4C08348D1044F8253084
:1022400030BD0A49DC3108607047000000080140D9
:10225000000C014000100140001401400018014032
:10226000001C01400020014000000140000020420D
:10227000DF48006840F00100DD490860084640681A
:10228000DC490840DA49486008460068DA490840F5
:10229000D74908600846006820F480200860084696
:1022A000406820F4FE0048604FF41F0088607047CB
:1022B000CF49096821F48031CD4A1160114609687F
:1022C00021F480211160B0F5803F03D0B0F5802F5C
:1022D0000ED106E0C649096841F48031C44A116054
:1022E00007E0C349096841F4A021C14A116000E038
:1022F00000BF00BF704710B5014600220023002038
:102300004A11012A02D1BA4C236806E0022A02D1FE
:10231000B74C236A01E0B64C636A01F01F02012446
:1023200094401C400CB1012000E0002010BD38B5E5
:10233000002000900024002500BF3120FFF7DBFFC4
:1023400005460098401C00900098B0F5A06F01D0A1
:10235000002DF2D03120FFF7CEFF08B1012400E0BC
:102360000024204638BD01460020A14A106820F014
:10237000F80040EAC10010607047A049086070474B
:10238000024600209A4B586820F47C1042EA010370
:102390001843974B58607047984908667047014644
:1023A0000020934A506820F00300084350607047B3
:1023B0008F48406800F00C007047014600208C4AAE
:1023C000506820F0F000084350607047014600203C
:1023D000874A506820F4E060084350607047014627
:1023E0000020834A506820F4605040EAC1005060E9
:1023F000704729B17E4A527A02437D4B5A7204E0FB
:102400007B4A527A82437A4B5A7270477B49D83161
:102410000860704701460020754A506820F440402B
:102420000843506070470021714A20321170704A91
:1024300082F82010012802D004280AD104E00121EA
:102440006B4A2032117005E00521694A2032117073
:1024500000E000BF00BF70476949086070476449E9
:10246000096A0143624A116270476549443908604C
:10247000704730B500210022002400235C4D6D68B8
:1024800005F00C0121B1042905D0082923D105E06C
:102490005C4D056022E05B4D05601FE0544D6D68AA
:1024A00005F47012524D6D6805F48034022505EB79
:1024B00092421CB9544D554305600BE04C4D6D687C
:1024C00005F400351DB1504D5543056002E04D4DFA
:1024D0005543056002E04B4D056000BF00BF444D11
:1024E0006D6805F0F0010909484D6B5C0568DD4039
:1024F00045603F4D6D6805F4E061090A434D6B5C32
:102500004568DD4085603A4D6D6805F46051C90A43
:102510003E4D6B5C4568DD40C560354D6D6805F42A
:102520004041890B3A4D6B5CC568B5FBF3F505611D
:1025300030BD29B12E4A526902432D4B5A6104E045
:102540002B4A526982432A4B5A61704729B1284A63
:1025500092690243264B9A6104E0254A92698243BC
:10256000234B9A61704729B1214AD2690243204B1B
:10257000DA6104E01E4AD26982431D4BDA6170477A
:1025800029B11B4AD2680243194BDA6004E0184AA9
:10259000D2688243164BDA60704729B1144A126937
:1025A0000243134B1A6104E0114A12698243104B33
:1025B0001A61704712494039086070470F49C86472
:1025C00070470B49C87170470948406A40F08070F5
:1025D00007494862704701460020054A92680A4050
:1025E0000AB1012000E0002070470149887270475D
:1025F000001002400000FFF8FFFFF6FE000042421C
:102600008004424200127A0000093D00520000207E
:102610006200002010B50446FB48844209D1012124
:102620008803FFF7ADFF00214FF48040FFF7A8FFBC
:1026300032E0F648844209D101214804FFF7ADFF9A
:1026400000214FF40030FFF7A8FF25E0F048844256
:1026500009D101218804FFF7A0FF00214FF4802059
:10266000FFF79BFF18E0EB48844209D10121C80421
:10267000FFF793FF00214FF40020FFF78EFF0BE0E0
:10268000E548844208D101210805FFF786FF0021B3
:102690004FF48010FFF781FF10BD2DE9F04786B0A1
:1026A00005460E460024A24600BFA1460027B08979
:1026B00000B100BF2F462C8A4CF6FF700440F08812
:1026C00004432C82AC894EF6F3100440B088318963
:1026D0000843718908430443AC81AC8A4FF6FF403C
:1026E0000440B0890443AC8201A8FFF7C2FEC6488B
:1026F000874202D1DDF810A001E0DDF80CA0A88926
:1027000000F4004040B10AEBCA0000EB0A10316847
:102710004900B0FBF1F807E00AEBCA0000EB0A1031
:1027200031688900B0FBF1F86420B8FBF0F00401D7
:102730002009642101FB1089A88900F4004040B100
:10274000322000EBC900B0FBF1F000F007000443B9
:1027500008E0322000EB09106421B0FBF1F000F03A
:102760000F0004432C8106B0BDE8F0874FF41651EA
:10277000016000218180C18001810C214181002103
:102780008181704710B502460020108A4FF2FF0386
:1027900018400B884C8823438C882343CC882343E0
:1027A0001843108210BD0021018041808180C180CA
:1027B000704721B1828942F40052828104E082890B
:1027C0004DF6FF731A4082817047F0B5034600242E
:1027D00000260025002040F66A17B94200D100BF4C
:1027E0001846C1F3421401F01F06012707FA06F547
:1027F000012C01D10C3004E0022C01D1103000E09A
:1028000014301AB107682F43076002E00768AF432E
:102810000760F0BD1AB1838A0B43838202E0838A8A
:102820008B4383827047028A4FF6F0731A4002820C
:10283000028A0A430282704782894FF2FF731A406C
:10284000828182890A438281704721B1828942F064
:102850000202828104E082894FF6FD731A40828170
:102860007047028A4FF6DF731A400282028A0A43D7
:102870000282704721B1028A42F48042028204E05F
:10288000028A4BF6FF731A4002827047C1F30802B6
:102890008280704701468888C0F3080070478189AC
:1028A00041F0010181817047028BD2B20283028B19
:1028B00042EA012202837047028B02F47F420283C4
:1028C000028B0A430283704721B1828A42F02002C0
:1028D000828204E0828A4FF6DF731A408282704758
:1028E00021B1828A42F01002828204E0828A4FF68D
:1028F000EF731A408282704721B1828A42F0080247
:10290000828204E0828A4FF6F7731A40828270470F
:1029100021B1828942F40042828103E08289C2F3BC
:102920000E028281704721B1828A42F40062828263
:1029300004E0828A4FF2FF731A4082827047828AD3
:102940004FF6FB731A408282828A0A438282704762
:1029500021B1828A42F00202828204E0828A4FF62A
:10296000FD731A408282704702460020B1F5007F55
:1029700000D100BF13880B400BB1012000E0002004
:10298000704701F40072B2F5007F00D100BFCA4366
:102990000280704770B50246002400230025002005
:1029A00040F66A16B14200D100BFC1F3421501F0F2
:1029B0001F03012606FA03F3012D02D19689334045
:1029C00006E0022D02D1168A334001E0968A334098
:1029D0000C12012606FA04F41688344013B10CB127
:1029E000012000E0002070BD10B50022002340F659
:1029F0006A14A14200D100BF0A1201249440A3B27C
:102A0000DC43048010BD0000003801400044004059
:102A100000480040004C00400050004010B501212B
:102A20000807FFF7BAFD00214FF08050FFF7B5FD12
:102A300010BD2A490862704728490861704701465D
:102A40000020274A106820F0E0000843106070471B
:102A50002249A0310860704710B502460020204B83
:102A6000186820F00300104318601E4B1B6843F0E9
:102A700004031C4C2360012901D130BF00E020BFBA
:102A8000184B1B6823F00403164C236010BD144838
:102A9000006840F00400124908600846006840F0F1
:102AA000020008600F48006840F004000D4908600B
:102AB00000BF00BF30BF704701460020084A52687F
:102AC0000A400AB1012000E000207047044909686B
:102AD00041EA8001024A11607047000000000E4286
:102AE0000070004010ED00E010B50120FFF762FD1E
:102AF0000020FFF75FFD10BD2A4908607047294993
:102B0000091F0860704727498431086070470146F3
:102B10000020254A10884FF67F4210400843224A81
:102B200010807047014600201F4A10884FF68072BF
:102B3000104008431C4A1080704708B500220092DC
:102B4000194A2C3A0092009A02440092009A1160AD
:102B500008BD08B501460020009013482C380090AD
:102B60000098084400900098008808BD0D489C30EB
:102B70000068C0B270470C480830008840F001007F
:102B800009490831088070470648A0300068C0B283
:102B9000704705480830008840F0020002490831BB
:102BA0000880704704860D422C6C004010B5044626
:102BB000FA48844208D101214015FFF7E1FC0021C9
:102BC0006015FFF7DDFC17E0F548844208D10121CC
:102BD0000015FFF7D5FC00212015FFF7D1FC0BE015
:102BE000F048844208D10121C803FFF7C9FC002145
:102BF0004FF40040FFF7C4FC10BD30B50246002082
:102C000000235068E84C20400D790C6844EA052404
:102C1000204350609068E54C2040D1E902542C4399
:102C20004D7944EA450420439060D06A20F4700056
:102C30000C7C641EE4B2234340EA0350D06230BDF2
:102C400000210160017141718160C1600121017445
:102C5000704721B1826842F00102826003E082681D
:102C600022F001028260704721B1826842F48072D2
:102C7000826003E0826822F480728260704710B53F
:102C80000023CBB21AB144681C43446002E044689C
:102C90009C43446010BD816841F008018160704729
:102CA000014600208A6802F008020AB1012000E013
:102CB00000207047816841F004018160704701463F
:102CC00000208A6802F004020AB1012000E000201E
:102CD000704721B1826842F4A002826003E08268FA
:102CE00022F4A00282607047014600208A6802F444
:102CF00080020AB1012000E00020704710B50A46AA
:102D000000210023416821F46041531E41EA433110
:102D1000416010BD21B1426842F40062426003E0AC
:102D2000426822F4006242607047F0B504460D46E6
:102D300000200021092D11DDE068A5F10A0606EB4F
:102D40004607072606FA07F18843A5F10A0606EBAF
:102D5000460603FA06F10843E0600CE0206905EB43
:102D60004507072606FA07F1884305EB450603FAEF
:102D700006F108432061072A0FDA606B561E06EB46
:102D800086071F2606FA07F18843561E06EB8606BD
:102D900005FA06F10843606322E00D2A0FDA206B82
:102DA000D61F06EB86071F2606FA07F18843D61FB3
:102DB00006EB860605FA06F10843206310E0E06A98
:102DC000A2F10D0606EB86071F2606FA07F18843D7
:102DD000A2F10D0606EB860605FA06F10843E0624D
:102DE000F0BD21B1826842F48012826003E0826803
:102DF00022F48012826070470146C86C80B270472E
:102E000066484C300068704721B1426842F48062E5
:102E1000426003E0426822F480624260704721B160
:102E2000426842F48052426003E0426822F48052D9
:102E3000426070470A460021816821F4E041114355
:102E40008160704721B1826842F40042826003E0F1
:102E5000826822F400428260704721B1826842F4A5
:102E60000212826003E0826822F4021282607047DC
:102E7000014600208A6802F400120AB1012000E035
:102E800000207047F0B504461546002000220026B9
:102E9000092911DDE068A1F10A0707EB470C0727B4
:102EA00007FA0CF29043A1F10A0707EB470703FA70
:102EB00007F21043E0600CE0206901EB410C0727AA
:102EC00007FA0CF2904301EB410703FA07F21043B3
:102ED0002061A06BC0F30156EF1C06F1010CA7EBBB
:102EE0000C0707EB870C1F2707FA0CF29043EF1C27
:102EF00006F1010CA7EB0C0707EB870701FA07F2B5
:102F00001043A063F0BD10B50A4600210023816B79
:102F100021F44011531E41EA0351816310BD08B5ED
:102F2000002300930090009B0B440093009B1A60C9
:102F300008BD08B5024600200090009201F128006B
:102F4000009B184400900098006880B208BD0A46B3
:102F500000214168164B194011434160704741629E
:102F6000826270470A460021416821F01F01114327
:102F70004160704740B109490831096841F40001D6
:102F8000064A0832116007E004490831096821F453
:102F90000001024A0832116070470000002401401D
:102FA00000280140003C0140FFFEF0FFFDF7F1FF6B
:102FB000FFFD3FFF0246002013680B400BB10120CC
:102FC00000E000207047CA430260704770B50246B7
:102FD0000020002300240B125568CEB205EA060437
:102FE00015681D4015B10CB1012000E0002070BD36
:102FF00000220A12D34303607047000001684FF6B5
:10300000FE72114001600021016041608160C16079
:103010008D49884208D18C490839496841F00F012F
:10302000894A083A51608AE087491431884208D1B8
:1030300085490839496841F0F001834A083A5160EE
:103040007DE081492831884208D17F4908394968A3
:1030500041F470617C4A083A516070E07A493C3131
:10306000884208D178490839496841F47041764A64
:10307000083A516063E074495031884208D172497E
:103080000839496841F470216F4A083A516056E0A6
:103090006D496431884208D16B490839496841F467
:1030A0007001694A083A516049E0674978318842BD
:1030B00008D165490839496841F07061624A083AA7
:1030C00051603CE06149884206D1011F096841F026
:1030D0000F01021F116032E05C491431884208D1AF
:1030E0005A49091F096841F0F001584A121F11603E
:1030F00025E056492831884208D15449091F0968FA
:1031000041F47061514A121F116018E04F493C317F
:10311000884208D14D49091F096841F470414B4A62
:10312000121F11600BE049495031884207D14749CD
:10313000091F096841F47021444A121F1160704749
:1031400010B50022026847F6F0739A430C6A8B6848
:1031500023430C6923434C6923438C692343CC6983
:1031600023434C6A23438C6A23431A430260CB688F
:1031700043600B6883604B68C36010BD0021016031
:1031800041608160C160016141618161C161016231
:1031900041628162704721B1026842F0010202601F
:1031A00004E002684FF6FE731A40026070471AB1DD
:1031B00003680B43036002E003688B4303607047BE
:1031C000416070470146486880B270470146002060
:1031D000002201F080531BB11C4B083B1A6802E02F
:1031E000194B083B1A6802EA01030BB1012000E009
:1031F0000020704700F0805119B11449091F086080
:1032000002E0114908394860704701460020002259
:1032100001F080531BB10D4B083B1A6802E00A4BCA
:10322000083B1A6802EA01030BB1012000E000200C
:10323000704700F0805119B10449091F086002E08D
:1032400001490839486070470800024008040240FC
:103250007CB5002514E06946284601F013FE0646B9
:1032600066B9F74850F8254044B1012C06D0D4E99E
:10327000020100EB810060640198A064681CC5B283
:103280003F2DE8D97CBD002400BF02E0282001F0DA
:1032900003FFEC4800780028F8D0EB480068642170
:1032A000B0FBF1F0E84908600846006828B9002042
:1032B000E6490870FF2001F027FE00BF02F01CF86D
:1032C0000446E3480068E34908600020E0490860DC
:1032D000204602F015F8DF480068DB490968B0FBBA
:1032E000F1F0C0F16400D949087001F0B2FFFFF7B6
:1032F000AFFF142001F0D0FEE0E700B587B0032057
:1033000000218022D44BCDE90132CDE903104FF6E4
:10331000FE703E23D14A0090AFF2950001F0CBFB46
:1033200006AACFA13E2001F02FFD07B000BD00246A
:1033300000BF00BF01F0E0FF0446C5480068401C24
:10334000C3490860204601F0DBFF01F081FFF1E78F
:1033500000B587B0032000218022C54BCDE90132A2
:10336000CDE903104FF6FF703F23C24A0090AFF241
:10337000410001F0A0FB06AABFA13F2001F004FD1F
:1033800007B000BD04E0002200F8012B4A1E91B2F4
:103390000029F8D1704770B5C821BB48FFF7F2FF8C
:1033A00000230FE0581C85B203EB8300B64901EB04
:1033B000800405EB850001EB80060020207066602C
:1033C000581C83B2092BEDD303EB8300AE4901EB0C
:1033D00080040020207060600846AC49086070BD21
:1033E00070B54FF47C71AA48FFF7CCFF4FF48071A1
:1033F0009348FFF7C7FF002413E0601CC5B2C4EB7D
:10340000C40000EB4000A24901EB8003C5EBC500FE
:1034100000EB400001EB80065E619EA0D864601C5A
:10342000C4B20B2CE9D3C4EBC40000EB40009849B4
:1034300001EB80030020586196A0D86400209649D3
:10344000086093489549086070BD0021944A117046
:10345000002004E00021934A1154411CC8B20828FE
:10346000F8D30021904A1170904A1170904A11606F
:10347000904A1160704700208F4908608F4908709A
:103480008F4908708F4908708F4908708F4908600C
:103490006F4908606F4908606B49086069490870A6
:1034A000704710B501F0D0FEFFF7E5FFFFF7CDFF45
:1034B000FFF796FFFFF76FFF00F0EAFE01F0E1F97A
:1034C000FFF746FFFFF719FF01F0BFFE10BD7E4872
:1034D0000078012808D179480078FF2804D277487D
:1034E0000078401C75490870704779496C4A127819
:1034F000885C6C49095C764A515C01EBC0016B4AFF
:103500001170704710B500246F480078012830D141
:1035100001F0F2FE04466948007820B1674800785F
:10352000401E6649087065480078F8B9644800781C
:10353000E0B9FFF7DAFF42485C49097850F821000A
:103540005B490860594800785749097888420DD08E
:1035500057480068806B401C5549096888635B4880
:103560000068401C5949086001F0E5FE204601F062
:10357000C7FE10BD10B5002453480078012811D1B2
:1035800001F0BAFE04464D48007840B94C48007836
:10359000FF2804D24A480078401C49490870204658
:1035A00001F0AEFE10BD10B5002401F0A5FE0446EA
:1035B00042480078F8B942480078E0B9FFF795FF33
:1035C0001F483A49097850F82100394908603748BE
:1035D00000783549097888420DD035480068806BFD
:1035E000401C33490968886338480068401C3749E3
:1035F000086001F099FE204601F082FE10BD10B572
:1036000000243148007801286FD101F075FE04468E
:103610002B48007880B12A480078401E284908705D
:103620000846007848B92548007838B9204601F0A6
:1036300067FEFFF7B8FF58E054E04FE04AE00000B3
:103640003019002080000020780000207400002045
:10365000900000207C000020301500202C17002056
:1036600075432F4F532D4949205374617400000056
:10367000301700202C19002075432F4F532D494936
:103680002049646C65000000181400206C000020C4
:10369000301A00203F000000A00000209800002009
:1036A0008500002086000020830000208400002088
:1036B0009C00002094000020AC000020810000202D
:1036C000820000208F0000208E0000206800002073
:1036D000666F0008204601F013FE06E0204601F068
:1036E0000FFE02E0204601F00BFE10BD10B5EB48C6
:1036F000007890B9FFF7F9FEE9480078E9490870C9
:10370000E948E749097850F82100E8490860084687
:103710000068E749086001F0F6FD10BD10B500240F
:10372000022001F0B9FC01F0E7FD04460020E14968
:103730000860204601F0E4FD142001F0ADFC01F02A
:10374000DBFD0446DB480068DB4908600120DB49FB
:103750000870204601F0D4FD10BD70B5002601F0C0
:10376000C8FD01F0C9FD0646D5480068401CD44993
:103770000860304601F0C4FDC8480078012853D1E4
:10378000D048007820B1012804D0022809D103E0F4
:1037900001250BE0002509E001250120C949087039
:1037A00004E001250020C749087000BF00BF05B92B
:1037B00070BDC548046833E001F09EFD0646E06A2E
:1037C00050B3E06A401EE062E06A28BB94F8300023
:1037D00000F0370040B114F8300F00F0C80020703E
:1037E00001206070303C02E0002084F8310094F841
:1037F000300000F0080078B93434A078B349097873
:103800000843B24908702078B149085C61780843E0
:1038100014F83419AE4A50546469304601F070FD12
:1038200094F832003F28C7D100BFC1E740F223100F
:103830007047704710B590F8342001F10B039B5C82
:1038400090F83540A34301F10B04A35423469B5C3D
:1038500023B98B7A90F83640A3438B7210BD2DE9C3
:10386000F04F05460F4690469946A87A99490E5C56
:1038700005F10B00805D11F800B00BEBC60000F005
:10388000FF0A894850F82A4000202034E060276071
:10389000207C20EA0800207484F81190207C203CD1
:1038A00000F0080068B994F83600884909780843A0
:1038B000864908708648805D94F83510084384492D
:1038C000885529462046FFF7B5FF5046BDE8F08FE2
:1038D00010B5774A1268D061754A126892F8343090
:1038E00000F10B02D25C724B1B6893F835301A431F
:1038F0006F4B1B6893F8344000F10B031A55827A22
:103900006B4B1B6893F836301A438272684A126810
:1039100092F834106E4A525C654B1B6893F8353050
:103920009A436B4B5A541A46525C42B9604A126829
:1039300092F83630654A12789A43644B1A7010BD7B
:10394000014600228A72002005E0002301F10B02EB
:103950001354421CD0B20828F7D3704705E011F881
:10396000013B00F8013B531E9AB2002AF7D1704781
:103970000146002002E0491C421CD0B20A78002A0D
:10398000F9D170472DE9F84F05460F469046994604
:10399000DDE90AAB0020009001F0AEFC00904E483B
:1039A0000468002C75D0183454F8040C4A49086097
:1039B000009801F0A5FC44F8187CA576002020763C
:1039C0006076606144F814BC44F80CAC44F8108C88
:1039D0000C9824F8080C24F8069C0020E077E810E6
:1039E000207705F00700E076217F01208840A0774E
:1039F000E17E01208840607700206060E060A06088
:103A00002062A0626062E0622063AFF2783060639F
:103A1000183C002606E0002104F1500040F8261072
:103A2000701CC6B2002EF6D0204601F061FC204684
:103A300001F00CFC01F060FC00901B4840F82540B0
:103A40002148006860610020A0611F48006810B133
:103A50001D48006884611C4804603434A0781B4908
:103A6000097808431949087020781949085C617879
:103A7000084314F83419164A505418480078401C6A
:103A800016490870009801F03BFC0020BDE8F88F53
:103A9000FFE7009801F034FC4220F7E78E00002099
:103AA0008400002083000020301900209C000020AA
:103AB000940000209000002078000020800000206A
:103AC000AC000020A4000020A00000208500002001
:103AD00086000020666F0008980000208F000020FC
:103AE0002DE9F05F04460F4691461E464FF0000B4D
:103AF0002078052804D0012030700020BDE8F09F18
:103B000009F0800ABAF1000F04D029F080094FF0C3
:103B1000010801E04FF000080020307001F0ECFBDC
:103B20008346B9F1000F2CD0B9F1010F3BD0B9F1A8
:103B3000020F03D0B9F1030F46D111E0208900EA4A
:103B40000705BD4206D1B8F1010F05D12089A84370
:103B5000208101E070203070584601F0D1FB3AE03E
:103B6000208900EA070535B1B8F1010F05D1208998
:103B7000A843208101E070203070584601F0C0FB5E
:103B800029E0208927EA0005BD4206D1B8F1010FDE
:103B900005D120892843208101E0702030705846EB
:103BA00001F0AEFB17E0208927EA000535B1B8F136
:103BB000010F05D120892843208101E07020307059
:103BC000584601F09DFB06E0584601F099FB0025A0
:103BD0006F20307000BF00BF28468FE72DE9F0410D
:103BE00006460D460027FA48007820B110202870BC
:103BF0000020BDE8F08101F07FFB0746F54804682E
:103C000084B100684068F34908600520207026816F
:103C100000206060F0A0E060384601F071FB0020F9
:103C2000287004E0384601F06BFB722028702046B3
:103C3000DFE730B501464A6808682AB9CC68606099
:103C400028B10025456002E0106000B142608B6839
:103C500000255D6230BDF0B506460F46B468002011
:103C6000283460602780207A00F0DF002072002076
:103C70006072207A283C88B93434A078D749097812
:103C80000843D64908702078D549085C6178084314
:103C900014F83419D24A5054012500E0002530466A
:103CA000FFF7C7FF2846F0BD2DE9F04704468946D7
:103CB00015464FF0000AC648007820B10F20287042
:103CC0002046BDE8F0872078052803D00120287021
:103CD0002046F6E701F010FB8246606808B1012734
:103CE00000E00027B9F1000F03D0B9F1010F3CD17A
:103CF00019E08FB9B8A0E06000202070B5480068D6
:103D0000606000202081B3480460504601F0F8FA5A
:103D100000202870002605E0504601F0F1FA492005
:103D20002870264628E0D4F8048005E000214046AB
:103D3000FFF791FFD8F80080B8F1000FF6D1A6A0E8
:103D4000E06000202070A3480068606000202081AF
:103D5000A0480460504601F0D3FA012F01D1FFF7CB
:103D600022FC00202870002606E0504601F0C8FA28
:103D700007202870264600BF00BF3046A1E72DE986
:103D8000F04105460E46144600279148007820B1C0
:103D9000112020700020BDE8F08101F0ADFA074647
:103DA0002878052806D0384601F0AAFA01202070AC
:103DB0000020F0E7E86830603068FFF7D9FD804602
:103DC000384601F09DFA002020704046E3E72DE9D7
:103DD000F04105460E46144600277D48007818B18C
:103DE00012202070BDE8F08101F086FA074628789D
:103DF000052805D0384601F083FA01202070F1E74C
:103E0000EE60384601F07CFA0020207000BFE9E740
:103E1000F0B51446059E734F3F6897F8307047F031
:103E20002007DFF8C0C1DCF800C08CF83070002734
:103E3000DFF8B0C1DCF800C08CF83170694F3F6822
:103E4000FE62684F3F6879620C828B74654F3F68F1
:103E50008F6047680F6000274F60C860456805B1F4
:103E6000696041605F4F3F6897F834205C4FBF5CEA
:103E7000DFF870C1DCF800C09CF835C027EA0C07F9
:103E8000DFF85CC10CF802706746BF5C5FB9554F44
:103E90003F6897F836C0514F3F7827EA0C07DFF8A4
:103EA0003CC18CF80070F0BD2DE9F04F89B005469B
:103EB0000F4691469A46129E002002904448007890
:103EC00028B102203070002009B0BDE8F08F4648CC
:103ED000007818B10D2030700020F5E7287805280B
:103EE00003D0012030700020EEE709F0800BBBF119
:103EF000000F04D009F07F094FF0010801E04FF0F6
:103F0000000801F0F9F90290B9F1000F4AD0B9F1B7
:103F1000010F78D0B9F1020F03D0B9F1030F71D1BD
:103F200020E0288900EA0704BC420FD1B8F1010F54
:103F300002D12889A04328812A4800680485029874
:103F400001F0DEF9002030702046BDE74B463A46CE
:103F500004A92846CDF800A0FFF75AFF029801F007
:103F6000CFF978E0288900EA07047CB1B8F1010FA5
:103F700002D12889A04328811A4800680485029844
:103F800001F0BEF90020307020469DE74B463A46CE
:103F900004A92846CDF800A0FFF73AFF029801F0E7
:103FA000AFF958E0288927EA0004BC421ED1B8F1D5
:103FB000010F02D12889204328810A48006804851E
:103FC000029801F09DF90020307020467CE71AE04D
:103FD00081000020700000203F00000085000020CC
:103FE0008600002094000020820000204B463A46C4
:103FF00004A92846CDF800A0FFF70AFF029801F0B7
:104000007FF928E01FE0288927EA00047CB1B8F195
:10401000010F02D1288920432881B1480068048516
:10402000029801F06DF90020307020464CE74B46B5
:104030003A4604A92846CDF800A0FFF7E9FE029809
:1040400001F05EF907E0029801F05AF900246F20B0
:104050003070204638E700BFFFF7A5FA01F04CF9B1
:1040600002909F48006890F8310020B39C48006897
:1040700090F83100039000209949096881F83100D7
:1040800004A8FFF7D6FD00209549096881F83000A3
:10409000029801F035F900240398012805D0022880
:1040A00002D10E20307003E000BF0A20307000BF44
:1040B00000BF204608E78A480068048DB8F1010F68
:1040C0001ED1B9F1000F0ED0B9F1010F0CD0B9F12A
:1040D000020F03D0B9F1030F0AD100E000BF288915
:1040E000A04328810BE000BF28892043288106E0F7
:1040F000029801F005F96F2030700020E4E600BF5F
:10410000029801F0FDF8002030702046DCE670B522
:10411000002501F0F1F8054671480068048D284635
:1041200001F0EEF8204670BD2DE9FC5F044689469B
:1041300092461E46002000902078052804D00120D9
:1041400030700020BDE8FC9F01F0D6F80090BAF175
:10415000000F03D0BAF1010F0AD104E0208920EA50
:10416000090020810BE0208940EA0900208106E057
:10417000009801F0C5F8712030700020E2E700BF20
:104180004FF0000B656855E0A87C40B3012838D09B
:10419000022802D0032844D111E02089298A00EAAC
:1041A0000107288AB84209D139462846FFF753FD4E
:1041B0008046B8F1010F01D14FF0010B38E02089A2
:1041C000298A00EA01074FB139462846FFF743FD27
:1041D0008046B8F1010F01D14FF0010B28E0288A89
:1041E000218920EA0107288AB84209D139462846A0
:1041F000FFF731FD8046B8F1010F01D14FF0010BFF
:1042000016E0288A218920EA01074FB1394628465D
:10421000FFF721FD8046B8F1010F01D14FF0010BEE
:1042200006E0009801F06CF86F203070002089E7FC
:1042300000BF2D68002DA7D1009801F061F8BBF1F7
:10424000010F01D1FFF7AFF901F056F80090208976
:104250000190009801F054F800203070019871E747
:104260002DE9F04104460D4600272078052804D0AA
:10427000012028700020BDE8F08101F03DF80746DC
:104280002689384601F03CF8002028703046F2E7D5
:104290002DE9F04150211348FFF774F800250EE096
:1042A000681C86B20F4800EB051400EB06170020CF
:1042B00020706760AFF2E020E060681C85B2042DDA
:1042C000EED3084800EB0514002020706060AFF2C8
:1042D000F820E060034804490860BDE8F081000070
:1042E00094000020E0140020700000202DE9F0412F
:1042F00006460D464FF000083078022804D0012011
:1043000028700020BDE8F08100F0F6FF8046746858
:10431000E08A78B12169081D20610F68E08A401E9B
:10432000E082A1682069884201D160682061002094
:10433000287002E01F2028700027404600F0E0FFB0
:104340003846DFE72DE9F04106460F464FF00008FA
:10435000F748007810B10020BDE8F08100F0CCFFF4
:104360008046F4480568006820B1F248006840685B
:10437000F0490860404600F0C3FF3DB300F0BCFFC9
:104380008046ED480468C4B100680068EA490860E6
:10439000404600F0B5FF666006EB8700A060E6606F
:1043A0002661A7820020E082022028700020288158
:1043B0006C602846FFF7C4FA08E0DE4800686860D1
:1043C000DC480560404600F09BFF00252846C3E717
:1043D0002DE9F0470446894615464FF0000A20783B
:1043E000022804D0012028702046BDE8F087D0487C
:1043F000007818B10F2028702046F6E700F07CFF07
:104400008246A07A10B14FF0010801E04FF0000899
:10441000B9F1000F03D0B9F1010F45D11FE0B8F198
:10442000000F15D16668C44800683060C248066055
:1044300000202070BF480068606000202081BD48D7
:104440000460504600F05CFF00202870002705E063
:10445000504600F055FF4920287027462BE005E024
:104460000023042219462046FFF7F9F9A07A002814
:10447000F6D16668B04800683060AF48066000203A
:104480002070AC480068606000202081A94804606A
:10449000504600F035FFB8F1010F01D1FFF783F866
:1044A00000202870002706E0504600F029FF072072
:1044B0002870274600BF00BF384696E770B505460E
:1044C000002600F019FF06466C686068E0606068CE
:1044D00020610020E082304600F012FF002070BD15
:1044E0002DE9F0470746884615464FF00009387811
:1044F000022804D0012028700020BDE8F0878C48F5
:10450000007818B1022028700020F6E78B48007868
:1045100018B10D2028700020EFE700F0EDFE814675
:104520007C68E08A98B12169081D20610E68E08AE4
:10453000401EE082A1682069884201D16068206144
:10454000484600F0DDFE002028703046D5E77C4864
:10455000006890F8300040F004007949096881F85B
:10456000300000207649096881F8310074480068FD
:10457000C0F82C803846FFF7ABF9484600F0C0FE83
:10458000FFF711F800F0B8FE81466D48006890F81A
:10459000310020B101280DD002280AD105E0684879
:1045A0000068066A002028700DE000260E202870A2
:1045B00009E000BF394662480068FFF73BF9002672
:1045C0000A20287000BF00BF00205D49096881F8FB
:1045D00030005B49096881F8310059490968C861B0
:1045E000574909680862484600F08AFE304684E769
:1045F0002DE9F04104460F4615464FF0000820789B
:10460000022804D0012028700020BDE8F08100F0CD
:1046100073FE8046A07A20B300267FB1012F0CD113
:1046200007E00223042200212046FFF718F9701C3E
:10463000C6B2A07A0028F4D109E000BF0223042208
:1046400000212046FFF70BF9701CC6B200BF00BF67
:10465000404600F055FEFEF7A6FF0E2028703046BB
:10466000D3E7404600F04CFE0020287000BFCCE7A6
:104670002DE9F04105460E4600272878022802D091
:104680000120BDE8F08100F037FE0746A87A60B14E
:104690000023042231462846FFF7E1F8384600F0AF
:1046A0002FFEFEF780FF0020EBE76C68E08AA18A0E
:1046B000884204DB384600F023FE1E20E1E7E16873
:1046C000081DE0600E60E08A401CE082D4E9021020
:1046D000884201D16068E060384600F011FE002099
:1046E000CFE72DE9F04105460E460027287802283D
:1046F00002D00120BDE8F08100F0FEFD0746A87A57
:1047000060B10023042231462846FFF7A8F8384656
:1047100000F0F6FDFEF747FF0020EBE76C68E08A4B
:10472000A18A88420EDB384600F0EAFD1E20E1E750
:10473000810000206C000020A800002082000020E2
:104740009400002061682069884201D1A06820613E
:104750002069001F206120690660E08A401CE08219
:10476000384600F0CDFD0020C4E72DE9F0410546B4
:104770000F4616464FF000082878022802D0012084
:10478000BDE8F08100F0B8FD8046A87AE8B106F0F7
:10479000010050B105E00023042239462846FFF706
:1047A0005EF8A87A0028F6D105E0002304223946F5
:1047B0002846FFF754F8404600F0A2FD06F004003A
:1047C00008B9FEF7F0FE0020DAE76C68E08AA18AFB
:1047D000884204DB404600F093FD1E20D0E706F03F
:1047E000020058B161682069884201D1A068206147
:1047F0002069001F20612069076009E0E168081D49
:10480000E0600F60D4E90210884201D16068E06086
:10481000E08A401CE082404600F072FD0020AFE7D5
:104820002DE9F04705460C464FF0000A287802288B
:1048300002D00120BDE8F08700F05EFD8246A87A34
:10484000207405F10B0804F10809002705E018F8A9
:10485000010B09F8010B781CC7B2082FF7D36E685B
:10486000F08A18B130690068206001E00020206003
:10487000F08AA080B08AE080504600F041FD002020
:10488000D8E72DE9F04178211048FEF77BFD0024A0
:104890000DE0601C86B204EB44000C4901EBC0053E
:1048A00006EB460001EBC0072F60601C84B2042CAD
:1048B000EFD304EB4400054901EBC005002028605C
:1048C000084603490860BDE8F0810000201E002072
:1048D000A80000202DE9FF5F814688460020009057
:1048E00000F00AFD0090F94850F8280030B1009817
:1048F00000F006FD282004B0BDE8F09FB9F1FF0FDD
:1049000003D1F348006890F83290F04850F82940FD
:1049100024B9009800F0F4FC2920ECE7012C04D124
:10492000009800F0EDFC4320E5E74FEAE80708F0C7
:10493000070003900120B84000F0FF0A012103980E
:10494000814001F0FF0B0020E04941F829000846B2
:1049500040F8284014F8346FA07802906078343C16
:104960000190DC48815D01980140D1B1D948805D5A
:1049700001998843D74988550846805D28B9D648AB
:10498000007802998843D4490870D348007840EAF7
:104990000A00D1490870CF48C05D40EA0B00CD49FC
:1049A000C855E569D5B105F10B00805D01998843D3
:1049B00005F10B0188550846805D18B9A87A02995F
:1049C0008843A872A87A40EA0A00A87205F10B0091
:1049D000C05D40EA0B0005F10B01C85584F8328038
:1049E00084F83470039884F8330084F836A084F88F
:1049F00035B0009800F084FCB8480078012801D157
:104A0000FEF7D1FD002076E72DE9FE4F06460F4662
:104A100090461C464FF0000900F06EFC8146B048FD
:104A2000007828B1484600F06BFC3C20BDE8FE8FC2
:104A3000A64850F8240060BB0120A44941F8240096
:104A4000484600F05DFC002342463946304600F0FF
:104A500001FC824600200090019003460246514628
:104A600002902046FEF78EFF054635B99B48007838
:104A700001280CD1FEF797FD09E000F03DFC8146CE
:104A80000020924941F82400484600F039FC2846AD
:104A9000CCE7484600F034FC2820C7E702F00103C9
:104AA00043B102F002032BB102E0491E002308C00B
:104AB0000029FAD170472DE9F04F85B081468A462A
:104AC00093461C46DDE90F78129D0020039000F00C
:104AD00013FC03908248007830B1039800F010FC7A
:104AE0003C2005B0BDE8F08F784850F8240088BB22
:104AF0000120764941F82400039800F001FC2A4681
:104B000041463846FFF7CAFF2B465A4651464846AB
:104B100000F0A0FB04901198CDE9008002953A4680
:104B200020460E9B0499FEF72DFF064636B96B48CA
:104B3000007801280CD1FEF736FD09E000F0DCFB1F
:104B400003900020614941F82400039800F0D8FB4D
:104B50003046C6E7FFE7039800F0D2FB2820C0E705
:104B60002DE9F041054600275D48007810B140204E
:104B7000BDE8F0813F2D01D13E20F9E700F0BCFBFC
:104B80000746FF2D03D15248006890F832504F4835
:104B900050F8254024B9384600F0B2FB4320E7E73F
:104BA000012C04D1384600F0ABFB3D20E0E714F8BF
:104BB000340F4849085C617888432178454A50544D
:104BC00014F834091146085C30B994F8361042489C
:104BD0000078884340490870E06918B12046E169CF
:104BE000FEF728FE666A16B13046FFF722F800206D
:104BF000E06284F8300084F831003A480078FF28F9
:104C000004D238480078401C36490870384600F015
:104C100077FBFEF70EFE00F06FFB07463148007889
:104C200020B130480078401E2E490870204600F020
:104C30000EFB2D480078401E2B49087000202349A8
:104C400041F82500A06930B90020616988612749D1
:104C50006069086005E0D4E905014861D4E9051000
:104C600088612348006860612148046021A0E064F5
:104C7000384600F045FB19480078012801D1FEF7BD
:104C800092FC002074E72DE9F041044600273F2CF8
:104C900002D13E20BDE8F081FF2C0BD100F02CFBAF
:104CA00007460B48006890F83760384600F028FB4C
:104CB0003046EFE700F020FB0746044850F8245048
:104CC000D5B9384600F01CFB4320E3E7301900203B
:104CD0009400002086000020850000208E00002027
:104CE00081000020820000208F000020A000002012
:104CF000980000203F000000012D04D1384600F04C
:104D0000FFFA3D20C6E73F2085F83700384600F01F
:104D1000F7FA0020BEE72DE9F04706460F46144695
:104D20004FF00008D648007820B1112020700020F4
:104D3000BDE8F08700F0E0FA8046FF2E03D1D148AD
:104D4000006890F83260D04850F8265035B9404697
:104D500000F0D6FA432020700020E9E7012D06D1AB
:104D6000404600F0CDFA432020700020E0E7E86CD8
:104D700038603868FEF7FCFD8146404600F0C0FA16
:104D8000002020704846D3E72DE9F04106460F4643
:104D900014464FF00008BA48007818B1122020706D
:104DA000BDE8F08100F0A8FA8046FF2E03D1B54897
:104DB000006890F83260B44850F826502DB940464B
:104DC00000F09EFA43202070EAE7012D05D140460D
:104DD00000F096FA43202070E2E7EF64404600F0CE
:104DE0008FFA0020207000BFDAE770B50546002674
:104DF00000F082FA0646A44850F8254024B930460F
:104E000000F07EFA462070BD012C04D1304600F03F
:104E100077FA4320F7E794F8300000F0080060B319
:104E200014F8300F00F0F700207014F83009F8B9CA
:104E3000E06AC8B93434A0789449097808439349A2
:104E4000087020789249085C6178084314F8341996
:104E50008F4A5054304600F053FA8E4800780128AB
:104E600009D1FEF7A0FB06E0304600F049FA02E067
:104E7000304600F045FA0020C5E7304600F040FA21
:104E80004420C0E72DE9F04707460D464FF0000AE1
:104E900000202860686000F02FFA8246FF2F03D1BF
:104EA0007848006890F83270774850F827402CB95D
:104EB000504600F025FA4320BDE8F087012C04D1CC
:104EC000504600F01DFA4320F6E7207C00F0010078
:104ED00020B9504600F014FA4520EDE70026D4F83A
:104EE0000C90D4F80880504600F00AFA00E0761CD6
:104EF00058F8041B0029FAD0B0002860A9EB06007E
:104F0000800068600020D7E72DE9F04105464FF0AA
:104F1000000800F0F1F98046FF2D05D159480068DE
:104F200090F83250012608E05648006890F83200A8
:104F3000A84201D1012600E00026534850F8254040
:104F40002CB9404600F0DCF94820BDE8F081012C86
:104F500004D1404600F0D4F94320F6E794F83470C9
:104F60004B48C05D94F8351088434949C8550846F8
:104F7000C05D30B994F836104448007888434349FE
:104F8000087094F8300040F0080084F83000404683
:104F900000F0B6F9012E01D1FEF705FB0020D4E7A1
:104FA0002DE9F04105460E46002700F0A5F9074619
:104FB000FF2D03D13348006890F83250324850F842
:104FC00025402CB9384600F09BF92920BDE8F08136
:104FD000012C04D1384600F093F94320F6E754221F
:104FE00021463046FEF7BAFC384600F089F9002029
:104FF000ECE72DE9F04704460E4617464FF000094E
:1050000000F07AF98146FF2C02D11E48056802E0C3
:105010001D4850F8245005F1500050F826804846AD
:1050200000F06EF9002038704046BDE8F0872DE9A9
:10503000F04704460E46174698464FF0000900F028
:105040005BF98146FF2C02D10E48056802E00E484C
:1050500050F8245005F1500040F82670484600F002
:105060004FF9002088F80000BDE8F08710B505482A
:10507000006800F03FF9FF20FFF772FD10BD00004F
:1050800081000020940000203019002085000020BD
:10509000860000208E00002070B50546002663487B
:1050A000007800B170BD6248007800B1FAE71DB326
:1050B00000F022F906465F48006890F834405E48E8
:1050C000005D5C49096891F8351088435A490855D4
:1050D0000846005D40B95748006890F836105748B8
:1050E000007888435549087052480068C5623046C8
:1050F00000F006F9FEF757FA00BFD3E72DE9F041BB
:1051000004460D4616461F464848007810B1552003
:10511000BDE8F0814648007808B13220F8E7B81CB5
:10512000C82148434FF47A71B0FBF1F14FF461604C
:105130006043C5EB051200EB8200304400EBC00277
:1051400002EB001001EBC0084046FFF7A5FF00206E
:10515000DEE770B5054600263F2D01D32A2070BD3D
:1051600000F0CAF80646364850F8254024B93046C3
:1051700000F0C6F84320F2E7012C04D1304600F0DD
:10518000BFF84320EBE7E06A20B9304600F0B8F8FA
:105190005020E4E70020E06294F8300000F037008F
:1051A00040B114F8300F20F03700207001206070FB
:1051B000303C02E0002084F8310094F8300000F028
:1051C0000800A8B93434A0781C49097808431B4961
:1051D000087020781849085C6178084314F834197D
:1051E000154A5054304600F08BF8FEF7DCF902E027
:1051F000304600F085F80020B1E770B5002500F0DA
:105200007BF805460F480468284600F079F82046E8
:1052100070BD70B50446002500F06EF805460948DB
:105220000460284600F06CF870BD0000810000208A
:1052300082000020940000208600002085000020CD
:1052400030190020AC00002070477047704770474D
:105250007047704770B5044610464FF08075056082
:10526000051F28462C606FF00106051F28462E609A
:105270004FF01236051F28462E604FF00336051FEB
:1052800028462E604FF00236051F28462E60761005
:10529000051F28462E60051F284629604FF011364D
:1052A000051F28462E604FF01036051F28462E6039
:1052B0004FF00936051F28462E604FF00836051FAF
:1052C00028462E604FF00736051F28462E604FF007
:1052D0000636051F28462E604FF00536051F284666
:1052E0002E604FF00436051F28462E6070BD7047B3
:1052F0007047704770470000EFF3108072B6704738
:1053000080F310887047204C204D25604FF000043A
:1053100084F309881E4C4FF0010525701D4C4FF099
:105320008055256062B6FEE730B41A4C4FF08055C8
:10533000256030BC704730B4164C4FF08055256066
:1053400030BC704700BF72B6EFF3098028B1203837
:1053500080E8F00F10490968086000B50F488047E1
:105360005DF804EB0E480F490A7802700A480E49AE
:105370000A680260106890E8F00F203080F3098816
:105380004EF0040E62B6704720ED00E00000FFFF13
:105390008E00002004ED00E094000020EF52000891
:1053A00083000020840000209C0000207047000043
:1053B0000FB4044910B503AA029800F06FFB10BCAB
:1053C0005DF814FB4C00002070B504468569006848
:1053D000C10601D5302600E02026C00707D070BDE9
:1053E000D4E9012130469047206A401C20626D1E9E
:1053F000F6D570BD70B5044685690078C00707D141
:1054000070BDD4E9012120209047206A401C206211
:105410006D1EF6D570BD00002DE9F0410646002452
:1054200010687529314616A510D0AFF3008000280A
:1054300002DA404213A507E031688A0701D512A5B8
:1054400002E0490704D511A5012401E0AFF3008073
:1054500000210A2206F1240709E0B0FBF2FCB0FBB0
:10546000F2F302FB1C00303078541846491C002827
:10547000F3D123462A463046BDE8F04100F0A8B8F3
:10548000000000002D0000002B00000020000000A4
:105490002DE9F05F894604464FF0000ADFF824B199
:1054A000FB44C0F820A02046E168884700287DD052
:1054B000252806D0D4E901219047206A401C2062AB
:1054C000F1E700255F462046E16888472028064628
:1054D00007DB312E05D2B81910F8200C08B10543AE
:1054E000F1E7A80701D525F00405C4F81CA00027A2
:1054F000C4F818A02A2E09D0304601F034F838B389
:1055000004EB8708303EC8F8186019E059F8041B0E
:10551000204604EB87029161E1688847012F064627
:1055200018D1E069002820DA25F020051DE0D8F820
:10553000180000EB800006EB40003038C8F8180077
:105540002046E1688847064601F00DF80028EED1B4
:10555000012F0AD02E2E08D12046E16888477F1CF3
:105560000646022F45F02005C4DBA069002803DAB7
:10557000404245F00105A061E80701D025F0100583
:10558000A6B1A6F14100192802D8203645F40065DD
:105590004A463146204625604D46FAF703FE60B183
:1055A000012807D0ED1D25F0070000E007E000F11D
:1055B000080978E705F1040975E730467AE7206ABB
:1055C000BDE8F09FC21B00007047704770477047EE
:1055D0002DE9F0470D4699469246044600F124080D
:1055E0000168880604D5E06921F01001216000E01F
:1055F0000120A84201DD471B00E00027A1697A19BC
:1056000002EB0900081AA0612078C00602D42046E7
:10561000FFF7DAFE002608E0D4E901211AF80600B7
:105620009047206A401C761C20624E45F4DB2078AF
:10563000C0060AD52046FFF7C7FE06E0D4E90121DF
:1056400030209047206A401C2062381EA7F10107D5
:10565000F4DC07E0D4E9012118F805009047206A3E
:10566000401C2062281EA5F10105F3DC2046FFF74F
:10567000C1FE2078000602D50220BDE8F087012097
:10568000FBE770472DE9FF4F0C461E464FF0FF37F2
:105690008BB0D2E90001DDF860800A908A46C1F340
:1056A0000A5505B93D46002108464FF00000BAF101
:1056B000000F00F4400005DA00EB80004FF44001D9
:1056C00001EA50004FEA9059B9F1010F00DDB946E7
:1056D0000A9850EA4A000ED044F61050A5F2FF3561
:1056E00045432F14B8F1000F1ED07542291E1EDD50
:1056F000C9F100021CE0B8F1010F4FF0000001D029
:10570000302103E0F24305E02154401CB042FBDBB2
:1057100030460022002121540B99C1F80880C1E9CC
:1057200000200FB0BDE8F08FBD1B6D1CDEE74A46C0
:1057300000DA694206A800F065FA06AB93E80700B4
:1057400003AB83E8070050460A9900F03DFB8DE863
:105750000700A0F500501F3800900398002D09DDC8
:1057600042F21F014A46084403A90390684600F02C
:105770009CFD08E0A0F500504A461F3803A903909D
:10578000684600F0A6FD8DE807000004000C03D079
:105790004FF0FF30410800E01046B8F1000F03D091
:1057A0000022009215461EE0751E05D400F08CF90B
:1057B000303262556D1EF9D5B3460122084302D03E
:1057C00000227F1C04E02078302801D100227F1EB7
:1057D000002A099786D01DE0112D07DA00F074F930
:1057E000303262556D1C50EA0102F5D1084302D0F7
:1057F0000098C8B10EE00021681E05E0235C625CE1
:1058000063542254401E491C8142F7DBAB46A81B5F
:10581000401E0990002004F80B000B98099AC0F86C
:105820000880C0E9002B7CE711264FF0000859E7FB
:105830002DE9F04F88460446D21D22F0070191B0B1
:10584000D1E90001CDE90A0100F079FE02460B988A
:10585000C00F01D02D2007E02068810701D52B2043
:1058600002E0202101EAC000032A099001D0072AA2
:1058700005DB03464146204600F084F90BE1207821
:10588000800601D5E06900E00620B8F1650F814689
:1058900006D0B8F1660F18D0B8F1670F70D131E0BB
:1058A0000020B9F1110F009001DB112301E009F193
:1058B00001030AAA01A90CA8FFF7E4FEDDE90C70B8
:1058C000002609F10105834647E001204B46009080
:1058D0004FF000470AAA01A90CA8FFF7D3FEDDE9A3
:1058E0000DB00C995D46002610B909F101000D18A4
:1058F000B9EB050003D4C0F1FF3609F10105A5EBB2
:1059000009002BE0B9F1010F01DA4FF00109002085
:10591000B9F1110F0090484601DD112300E0034664
:105920000AAA01A90CA8FFF7ADFEDDE90C704D46EF
:1059300000268346207800070AD4AB4500DA5D468E
:1059400001A8012D04DD411911F8011C302907D0EF
:105950004F4502DA17F1040F04DA012082460FE006
:105960006D1EEEE7002F02DCED1B3E4403E0781CC9
:10597000A84200DD7D1CB81B00F1010A4FF0004772
:105980002078000703D4AA4501DB4FF0FF3A00213D
:10599000B7F1004F0DF143088DF8431024D00220D9
:1059A0002B23002F01DA7F422D230A21021EA0F1B2
:1059B000010000DC5FB197FBF1FC97FBF1F201FB0A
:1059C0001C7C17460CF1300C08F801CDEEE7A8F16D
:1059D000010003702188090501D5452100E06521FA
:1059E000A0F1010800F8011C09980FA9A1EB080714
:1059F000FF1D00B10120411901EBEA70A169384493
:105A0000081A401EA0612078C00602D42046FFF785
:105A1000DBFC099828B1D4E901219047206A401C99
:105A200020622078C00622D52046FFF7CDFC1EE07C
:105A3000002E04DBB34502DD01A8805D00E03020CC
:105A4000D4E901219047206A401C2062761CAAF10B
:105A500001005FEA000A0AD100F032F8C06801686C
:105A6000405CD4E901219047206A401C2062281E36
:105A7000A5F10105DCDC07E0D4E9012118F8010BF0
:105A80009047206A401C2062381EA7F10107F3DC12
:105A90002046FFF7AFFC032011B043E6074B70B57B
:105AA0000D467B4400F05BF80446284600F018F9E8
:105AB00010B14FF0FF3070BD204670BD05C2FFFF32
:105AC00000487047B81E002030B5B0F10A024FEA16
:105AD000900E71F100034EEA817EB0EB0E0061EB97
